{
    "_format": "hh-sol-artifact-1",
    "contractName": "PaymentContract",
    "sourceName": "contracts/payments/GPSBasedPayment.sol",
    "abi": [
        {
            "inputs": [
                {
                    "internalType": "address",
                    "name": "oracleAddress",
                    "type": "address"
                }
            ],
            "stateMutability": "nonpayable",
            "type": "constructor"
        },
        {
            "anonymous": false,
            "inputs": [
                {
                    "indexed": true,
                    "internalType": "address",
                    "name": "worker",
                    "type": "address"
                },
                {
                    "indexed": false,
                    "internalType": "uint256",
                    "name": "amount",
                    "type": "uint256"
                }
            ],
            "name": "PaymentTriggered",
            "type": "event"
        },
        {
            "inputs": [],
            "name": "gpsOracle",
            "outputs": [
                {
                    "internalType": "contract IOracle",
                    "name": "",
                    "type": "address"
                }
            ],
            "stateMutability": "view",
            "type": "function"
        },
        {
            "inputs": [],
            "name": "owner",
            "outputs": [
                {
                    "internalType": "address",
                    "name": "",
                    "type": "address"
                }
            ],
            "stateMutability": "view",
            "type": "function"
        },
        {
            "inputs": [
                {
                    "internalType": "address",
                    "name": "",
                    "type": "address"
                }
            ],
            "name": "paymentTriggered",
            "outputs": [
                {
                    "internalType": "bool",
                    "name": "",
                    "type": "bool"
                }
            ],
            "stateMutability": "view",
            "type": "function"
        },
        {
            "inputs": [
                {
                    "internalType": "address",
                    "name": "worker",
                    "type": "address"
                }
            ],
            "name": "processPayment",
            "outputs": [],
            "stateMutability": "nonpayable",
            "type": "function"
        },
        {
            "stateMutability": "payable",
            "type": "receive"
        }
    ],
    "bytecode": "0x608060405234801561001057600080fd5b506040516108423803806108428339818101604052810190610032919061011c565b336000806101000a81548173ffffffffffffffffffffffffffffffffffffffff021916908373ffffffffffffffffffffffffffffffffffffffff16021790555080600160006101000a81548173ffffffffffffffffffffffffffffffffffffffff021916908373ffffffffffffffffffffffffffffffffffffffff16021790555050610149565b600080fd5b600073ffffffffffffffffffffffffffffffffffffffff82169050919050565b60006100e9826100be565b9050919050565b6100f9816100de565b811461010457600080fd5b50565b600081519050610116816100f0565b92915050565b600060208284031215610132576101316100b9565b5b600061014084828501610107565b91505092915050565b6106ea806101586000396000f3fe6080604052600436106100435760003560e01c80632a9514df1461004f578063871c312c1461007a5780638da5cb5b146100b75780638fe123d7146100e25761004a565b3661004a57005b600080fd5b34801561005b57600080fd5b5061006461010b565b6040516100719190610453565b60405180910390f35b34801561008657600080fd5b506100a1600480360381019061009c91906104b1565b610131565b6040516100ae91906104f9565b60405180910390f35b3480156100c357600080fd5b506100cc610151565b6040516100d99190610523565b60405180910390f35b3480156100ee57600080fd5b50610109600480360381019061010491906104b1565b610175565b005b600160009054906101000a900473ffffffffffffffffffffffffffffffffffffffff1681565b60026020528060005260406000206000915054906101000a900460ff1681565b60008054906101000a900473ffffffffffffffffffffffffffffffffffffffff1681565b600260008273ffffffffffffffffffffffffffffffffffffffff1673ffffffffffffffffffffffffffffffffffffffff16815260200190815260200160002060009054906101000a900460ff1615610202576040517f08c379a00000000000000000000000000000000000000000000000000000000081526004016101f99061059b565b60405180910390fd5b600160009054906101000a900473ffffffffffffffffffffffffffffffffffffffff1673ffffffffffffffffffffffffffffffffffffffff166394c00ac3826040518263ffffffff1660e01b815260040161025d9190610523565b602060405180830381865afa15801561027a573d6000803e3d6000fd5b505050506040513d601f19601f8201168201806040525081019061029e91906105e7565b6102dd576040517f08c379a00000000000000000000000000000000000000000000000000000000081526004016102d490610660565b60405180910390fd5b6001600260008373ffffffffffffffffffffffffffffffffffffffff1673ffffffffffffffffffffffffffffffffffffffff16815260200190815260200160002060006101000a81548160ff0219169083151502179055506000606490508173ffffffffffffffffffffffffffffffffffffffff167f8f6c8602fe63e69a4bfb1d99adb15571c489978e4df48f398993adcc6f5774d2826040516103819190610699565b60405180910390a28173ffffffffffffffffffffffffffffffffffffffff166108fc829081150290604051600060405180830381858888f193505050501580156103cf573d6000803e3d6000fd5b505050565b600073ffffffffffffffffffffffffffffffffffffffff82169050919050565b6000819050919050565b600061041961041461040f846103d4565b6103f4565b6103d4565b9050919050565b600061042b826103fe565b9050919050565b600061043d82610420565b9050919050565b61044d81610432565b82525050565b60006020820190506104686000830184610444565b92915050565b600080fd5b600061047e826103d4565b9050919050565b61048e81610473565b811461049957600080fd5b50565b6000813590506104ab81610485565b92915050565b6000602082840312156104c7576104c661046e565b5b60006104d58482850161049c565b91505092915050565b60008115159050919050565b6104f3816104de565b82525050565b600060208201905061050e60008301846104ea565b92915050565b61051d81610473565b82525050565b60006020820190506105386000830184610514565b92915050565b600082825260208201905092915050565b7f5061796d656e7420616c72656164792074726967676572656400000000000000600082015250565b600061058560198361053e565b91506105908261054f565b602082019050919050565b600060208201905081810360008301526105b481610578565b9050919050565b6105c4816104de565b81146105cf57600080fd5b50565b6000815190506105e1816105bb565b92915050565b6000602082840312156105fd576105fc61046e565b5b600061060b848285016105d2565b91505092915050565b7f576f726b6572206e6f7420656c696769626c6520666f72207061796d656e7400600082015250565b600061064a601f8361053e565b915061065582610614565b602082019050919050565b600060208201905081810360008301526106798161063d565b9050919050565b6000819050919050565b61069381610680565b82525050565b60006020820190506106ae600083018461068a565b9291505056fea26469706673582212203edca361c4d545795ff4cfce6032f42e865723243d5d9f8a6c4d422f2304581364736f6c63430008140033",
    "linkReferences": {},
    "deployedLinkReferences": {}
}