{
    "_format": "hh-sol-artifact-1",
    "contractName": "GPSOracle",
    "sourceName": "contracts/oracles/GPSOracle.sol",
    "abi": [
        {
            "anonymous": false,
            "inputs": [
                {
                    "indexed": true,
                    "internalType": "address",
                    "name": "worker",
                    "type": "address"
                },
                {
                    "indexed": false,
                    "internalType": "int256",
                    "name": "latitude",
                    "type": "int256"
                },
                {
                    "indexed": false,
                    "internalType": "int256",
                    "name": "longitude",
                    "type": "int256"
                },
                {
                    "indexed": false,
                    "internalType": "uint256",
                    "name": "timestamp",
                    "type": "uint256"
                }
            ],
            "name": "LocationRecorded",
            "type": "event"
        },
        {
            "inputs": [],
            "name": "getCostPerVerification",
            "outputs": [
                {
                    "internalType": "uint256",
                    "name": "",
                    "type": "uint256"
                }
            ],
            "stateMutability": "pure",
            "type": "function"
        },
        {
            "inputs": [],
            "name": "getOracleType",
            "outputs": [
                {
                    "internalType": "string",
                    "name": "",
                    "type": "string"
                }
            ],
            "stateMutability": "pure",
            "type": "function"
        },
        {
            "inputs": [
                {
                    "internalType": "bytes32",
                    "name": "jobId",
                    "type": "bytes32"
                }
            ],
            "name": "getVerificationData",
            "outputs": [
                {
                    "internalType": "bool",
                    "name": "",
                    "type": "bool"
                },
                {
                    "internalType": "bytes",
                    "name": "",
                    "type": "bytes"
                }
            ],
            "stateMutability": "view",
            "type": "function"
        },
        {
            "inputs": [
                {
                    "internalType": "address",
                    "name": "worker",
                    "type": "address"
                }
            ],
            "name": "isEligibleForPayment",
            "outputs": [
                {
                    "internalType": "bool",
                    "name": "",
                    "type": "bool"
                }
            ],
            "stateMutability": "view",
            "type": "function"
        },
        {
            "inputs": [
                {
                    "internalType": "bytes32",
                    "name": "jobId",
                    "type": "bytes32"
                },
                {
                    "internalType": "int256",
                    "name": "lat",
                    "type": "int256"
                },
                {
                    "internalType": "int256",
                    "name": "long",
                    "type": "int256"
                },
                {
                    "internalType": "uint256",
                    "name": "accuracy",
                    "type": "uint256"
                }
            ],
            "name": "recordLocation",
            "outputs": [],
            "stateMutability": "nonpayable",
            "type": "function"
        },
        {
            "inputs": [
                {
                    "internalType": "address",
                    "name": "",
                    "type": "address"
                }
            ],
            "name": "workerTimes",
            "outputs": [
                {
                    "internalType": "uint256",
                    "name": "entryTimestamp",
                    "type": "uint256"
                },
                {
                    "internalType": "uint256",
                    "name": "exitTimestamp",
                    "type": "uint256"
                },
                {
                    "internalType": "bool",
                    "name": "hasEntered",
                    "type": "bool"
                }
            ],
            "stateMutability": "view",
            "type": "function"
        }
    ],
    "bytecode": "0x608060405234801561001057600080fd5b50610901806100206000396000f3fe608060405234801561001057600080fd5b50600436106100625760003560e01c8063276ef90a146100675780636ebaef1d146100855780637e7e38d2146100b657806394c00ac3146100e8578063b0ece79014610118578063d72e070514610134575b600080fd5b61006f610152565b60405161007c9190610415565b60405180910390f35b61009f600480360381019061009a919061046b565b610161565b6040516100ad929190610543565b60405180910390f35b6100d060048036038101906100cb91906105d1565b610197565b6040516100df939291906105fe565b60405180910390f35b61010260048036038101906100fd91906105d1565b6101ce565b60405161010f9190610635565b60405180910390f35b610132600480360381019061012d91906106b2565b61028a565b005b61013c6103bf565b604051610149919061076e565b60405180910390f35b600066038d7ea4c68000905090565b6000606060006008905060018160405160200161017e9190610415565b6040516020818303038152906040529250925050915091565b60006020528060005260406000206000915090508060000154908060010154908060020160009054906101000a900460ff16905083565b6000806000808473ffffffffffffffffffffffffffffffffffffffff1673ffffffffffffffffffffffffffffffffffffffff16815260200190815260200160002060405180606001604052908160008201548152602001600182015481526020016002820160009054906101000a900460ff16151515158152505090508060400151801561027057506078816000015161026891906107bf565b816020015110155b1561027f576001915050610285565b60009150505b919050565b60008314801561029a5750600182145b6102d9576040517f08c379a00000000000000000000000000000000000000000000000000000000081526004016102d090610865565b60405180910390fd5b60008060003373ffffffffffffffffffffffffffffffffffffffff1673ffffffffffffffffffffffffffffffffffffffff16815260200190815260200160002090508060020160009054906101000a900460ff1661035c5742816000018190555060018160020160006101000a81548160ff021916908315150217905550610366565b4281600101819055505b3373ffffffffffffffffffffffffffffffffffffffff167f5a02bff20f58da3453544a3f30cdc709a089de89e0ac8ea3b4ec877601a949018585426040516103b093929190610894565b60405180910390a25050505050565b60606040518060400160405280600381526020017f4750530000000000000000000000000000000000000000000000000000000000815250905090565b6000819050919050565b61040f816103fc565b82525050565b600060208201905061042a6000830184610406565b92915050565b600080fd5b6000819050919050565b61044881610435565b811461045357600080fd5b50565b6000813590506104658161043f565b92915050565b60006020828403121561048157610480610430565b5b600061048f84828501610456565b91505092915050565b60008115159050919050565b6104ad81610498565b82525050565b600081519050919050565b600082825260208201905092915050565b60005b838110156104ed5780820151818401526020810190506104d2565b60008484015250505050565b6000601f19601f8301169050919050565b6000610515826104b3565b61051f81856104be565b935061052f8185602086016104cf565b610538816104f9565b840191505092915050565b600060408201905061055860008301856104a4565b818103602083015261056a818461050a565b90509392505050565b600073ffffffffffffffffffffffffffffffffffffffff82169050919050565b600061059e82610573565b9050919050565b6105ae81610593565b81146105b957600080fd5b50565b6000813590506105cb816105a5565b92915050565b6000602082840312156105e7576105e6610430565b5b60006105f5848285016105bc565b91505092915050565b60006060820190506106136000830186610406565b6106206020830185610406565b61062d60408301846104a4565b949350505050565b600060208201905061064a60008301846104a4565b92915050565b6000819050919050565b61066381610650565b811461066e57600080fd5b50565b6000813590506106808161065a565b92915050565b61068f816103fc565b811461069a57600080fd5b50565b6000813590506106ac81610686565b92915050565b600080600080608085870312156106cc576106cb610430565b5b60006106da87828801610456565b94505060206106eb87828801610671565b93505060406106fc87828801610671565b925050606061070d8782880161069d565b91505092959194509250565b600081519050919050565b600082825260208201905092915050565b600061074082610719565b61074a8185610724565b935061075a8185602086016104cf565b610763816104f9565b840191505092915050565b600060208201905081810360008301526107888184610735565b905092915050565b7f4e487b7100000000000000000000000000000000000000000000000000000000600052601160045260246000fd5b60006107ca826103fc565b91506107d5836103fc565b92508282019050808211156107ed576107ec610790565b5b92915050565b7f576f726b6572206e6f742061742064657369676e61746564206c6f636174696f60008201527f6e00000000000000000000000000000000000000000000000000000000000000602082015250565b600061084f602183610724565b915061085a826107f3565b604082019050919050565b6000602082019050818103600083015261087e81610842565b9050919050565b61088e81610650565b82525050565b60006060820190506108a96000830186610885565b6108b66020830185610885565b6108c36040830184610406565b94935050505056fea26469706673582212207545fb13ca5bfdf1ab1febfab04f1a118643584dd8846a2c586e9235cd25853264736f6c63430008140033",
    "linkReferences": {},
    "deployedLinkReferences": {}
}