{
  "_format": "hh-sol-artifact-1",
  "contractName": "WorkContract",
  "sourceName": "src/WorkContract.sol",
  "abi": [
    {
      "inputs": [
        {
          "internalType": "address",
          "name": "_employer",
          "type": "address"
        },
        {
          "internalType": "address",
          "name": "_worker",
          "type": "address"
        },
        {
          "internalType": "address",
          "name": "_mediator",
          "type": "address"
        },
        {
          "internalType": "address",
          "name": "_paymentToken",
          "type": "address"
        },
        {
          "internalType": "uint256",
          "name": "_paymentAmount",
          "type": "uint256"
        },
        {
          "internalType": "uint256",
          "name": "_jobId",
          "type": "uint256"
        },
        {
          "internalType": "address",
          "name": "_admin",
          "type": "address"
        },
        {
          "internalType": "contract IWorkOracle[]",
          "name": "_oracles",
          "type": "address[]"
        }
      ],
      "stateMutability": "nonpayable",
      "type": "constructor"
    },
    {
      "anonymous": false,
      "inputs": [
        {
          "indexed": true,
          "internalType": "address",
          "name": "employer",
          "type": "address"
        },
        {
          "indexed": false,
          "internalType": "uint256",
          "name": "refundAmount",
          "type": "uint256"
        }
      ],
      "name": "ContractCancelled",
      "type": "event"
    },
    {
      "anonymous": false,
      "inputs": [
        {
          "indexed": true,
          "internalType": "address",
          "name": "employer",
          "type": "address"
        },
        {
          "indexed": true,
          "internalType": "address",
          "name": "worker",
          "type": "address"
        },
        {
          "indexed": false,
          "internalType": "uint256",
          "name": "amount",
          "type": "uint256"
        },
        {
          "indexed": false,
          "internalType": "uint256",
          "name": "jobId",
          "type": "uint256"
        }
      ],
      "name": "ContractFunded",
      "type": "event"
    },
    {
      "anonymous": false,
      "inputs": [
        {
          "indexed": true,
          "internalType": "address",
          "name": "raisedBy",
          "type": "address"
        },
        {
          "indexed": false,
          "internalType": "string",
          "name": "reason",
          "type": "string"
        }
      ],
      "name": "DisputeRaised",
      "type": "event"
    },
    {
      "anonymous": false,
      "inputs": [
        {
          "indexed": true,
          "internalType": "address",
          "name": "mediator",
          "type": "address"
        },
        {
          "indexed": false,
          "internalType": "uint256",
          "name": "workerAmount",
          "type": "uint256"
        },
        {
          "indexed": false,
          "internalType": "uint256",
          "name": "employerAmount",
          "type": "uint256"
        }
      ],
      "name": "DisputeResolved",
      "type": "event"
    },
    {
      "anonymous": false,
      "inputs": [
        {
          "indexed": true,
          "internalType": "address",
          "name": "sender",
          "type": "address"
        },
        {
          "indexed": false,
          "internalType": "uint256",
          "name": "amount",
          "type": "uint256"
        },
        {
          "indexed": false,
          "internalType": "uint256",
          "name": "newBalance",
          "type": "uint256"
        }
      ],
      "name": "EscrowTopUp",
      "type": "event"
    },
    {
      "anonymous": false,
      "inputs": [
        {
          "indexed": true,
          "internalType": "address",
          "name": "mediator",
          "type": "address"
        }
      ],
      "name": "MediatorAssigned",
      "type": "event"
    },
    {
      "anonymous": false,
      "inputs": [
        {
          "indexed": true,
          "internalType": "address",
          "name": "worker",
          "type": "address"
        },
        {
          "indexed": false,
          "internalType": "uint256",
          "name": "amount",
          "type": "uint256"
        }
      ],
      "name": "WorkApproved",
      "type": "event"
    },
    {
      "inputs": [],
      "name": "admin",
      "outputs": [
        {
          "internalType": "address",
          "name": "",
          "type": "address"
        }
      ],
      "stateMutability": "view",
      "type": "function"
    },
    {
      "inputs": [],
      "name": "approveAndPay",
      "outputs": [],
      "stateMutability": "nonpayable",
      "type": "function"
    },
    {
      "inputs": [
        {
          "internalType": "address",
          "name": "_mediator",
          "type": "address"
        }
      ],
      "name": "assignMediator",
      "outputs": [],
      "stateMutability": "nonpayable",
      "type": "function"
    },
    {
      "inputs": [],
      "name": "cancelContract",
      "outputs": [],
      "stateMutability": "nonpayable",
      "type": "function"
    },
    {
      "inputs": [],
      "name": "checkOracles",
      "outputs": [
        {
          "internalType": "bool",
          "name": "",
          "type": "bool"
        }
      ],
      "stateMutability": "view",
      "type": "function"
    },
    {
      "inputs": [],
      "name": "disputeReason",
      "outputs": [
        {
          "internalType": "string",
          "name": "",
          "type": "string"
        }
      ],
      "stateMutability": "view",
      "type": "function"
    },
    {
      "inputs": [],
      "name": "employer",
      "outputs": [
        {
          "internalType": "address",
          "name": "",
          "type": "address"
        }
      ],
      "stateMutability": "view",
      "type": "function"
    },
    {
      "inputs": [],
      "name": "getBalance",
      "outputs": [
        {
          "internalType": "uint256",
          "name": "",
          "type": "uint256"
        }
      ],
      "stateMutability": "view",
      "type": "function"
    },
    {
      "inputs": [],
      "name": "getDetails",
      "outputs": [
        {
          "internalType": "address",
          "name": "_employer",
          "type": "address"
        },
        {
          "internalType": "address",
          "name": "_worker",
          "type": "address"
        },
        {
          "internalType": "address",
          "name": "_mediator",
          "type": "address"
        },
        {
          "internalType": "uint256",
          "name": "_paymentAmount",
          "type": "uint256"
        },
        {
          "internalType": "uint256",
          "name": "_jobId",
          "type": "uint256"
        },
        {
          "internalType": "enum WorkContract.State",
          "name": "_state",
          "type": "uint8"
        },
        {
          "internalType": "string",
          "name": "_disputeReason",
          "type": "string"
        },
        {
          "internalType": "uint256",
          "name": "_oracleCount",
          "type": "uint256"
        }
      ],
      "stateMutability": "view",
      "type": "function"
    },
    {
      "inputs": [
        {
          "internalType": "uint256",
          "name": "index",
          "type": "uint256"
        }
      ],
      "name": "getOracle",
      "outputs": [
        {
          "internalType": "address",
          "name": "",
          "type": "address"
        }
      ],
      "stateMutability": "view",
      "type": "function"
    },
    {
      "inputs": [],
      "name": "getOracleCount",
      "outputs": [
        {
          "internalType": "uint256",
          "name": "",
          "type": "uint256"
        }
      ],
      "stateMutability": "view",
      "type": "function"
    },
    {
      "inputs": [],
      "name": "jobId",
      "outputs": [
        {
          "internalType": "uint256",
          "name": "",
          "type": "uint256"
        }
      ],
      "stateMutability": "view",
      "type": "function"
    },
    {
      "inputs": [],
      "name": "mediator",
      "outputs": [
        {
          "internalType": "address",
          "name": "",
          "type": "address"
        }
      ],
      "stateMutability": "view",
      "type": "function"
    },
    {
      "inputs": [],
      "name": "paymentAmount",
      "outputs": [
        {
          "internalType": "uint256",
          "name": "",
          "type": "uint256"
        }
      ],
      "stateMutability": "view",
      "type": "function"
    },
    {
      "inputs": [],
      "name": "paymentToken",
      "outputs": [
        {
          "internalType": "contract IERC20",
          "name": "",
          "type": "address"
        }
      ],
      "stateMutability": "view",
      "type": "function"
    },
    {
      "inputs": [
        {
          "internalType": "string",
          "name": "reason",
          "type": "string"
        }
      ],
      "name": "raiseDispute",
      "outputs": [],
      "stateMutability": "nonpayable",
      "type": "function"
    },
    {
      "inputs": [
        {
          "internalType": "uint8",
          "name": "workerPercentage",
          "type": "uint8"
        }
      ],
      "name": "resolveDispute",
      "outputs": [],
      "stateMutability": "nonpayable",
      "type": "function"
    },
    {
      "inputs": [],
      "name": "state",
      "outputs": [
        {
          "internalType": "enum WorkContract.State",
          "name": "",
          "type": "uint8"
        }
      ],
      "stateMutability": "view",
      "type": "function"
    },
    {
      "inputs": [
        {
          "internalType": "uint256",
          "name": "amount",
          "type": "uint256"
        }
      ],
      "name": "topUp",
      "outputs": [],
      "stateMutability": "nonpayable",
      "type": "function"
    },
    {
      "inputs": [],
      "name": "worker",
      "outputs": [
        {
          "internalType": "address",
          "name": "",
          "type": "address"
        }
      ],
      "stateMutability": "view",
      "type": "function"
    }
  ],
  "bytecode": "0x60406080815234620004f45762001cae803803806200001e816200050f565b92833981019061010081830312620004f4576200003b8162000535565b916020916200004c83820162000535565b926200005a86830162000535565b92620000696060840162000535565b9560808401519460a0850151946200008460c0820162000535565b60e082015190916001600160401b039190828211620004f457019480601f87011215620004f4578551918211620004f95760059582871b908880620000cb8185016200050f565b809681520192820101928311620004f4578801905b828210620004d3575050506001600160a01b039384169889156200048f578416998a156200044b57841691821562000407578815620003b557898b14620003715784169283156200032d578416938462000295575b938a9896948a9493928d999760018060a01b0319936000968588541617875560019c8d98868a5416178955856002541617600255846003541617600355600494848654161785558981558860065560ff1960095416600955859b5b620001d7575b505050505050507fa37175a3415c4ec48c1ba6d18e2b563b5e88acf3b470b83ab91fa9eb741895f194508351928352820152a35161176390816200054b8239f35b919395979981939597999b9151821015620002895750838982841b850101511660088054906801000000000000000082101562000276578a8201808255821015620002635789528a892001908682541617905560001981146200025057908780979695949392019a98969594939291908e9a9862000190565b634e487b7160e01b875260118652602487fd5b634e487b7160e01b8a526032895260248afd5b634e487b7160e01b8a526041895260248afd5b99978b99975062000196565b898514620002e9578a850362000135578b5162461bcd60e51b815260048101889052601960248201527f4d65646961746f722063616e6e6f7420626520776f726b6572000000000000006044820152606490fd5b8b5162461bcd60e51b815260048101889052601b60248201527f4d65646961746f722063616e6e6f7420626520656d706c6f79657200000000006044820152606490fd5b8b5162461bcd60e51b815260048101889052601560248201527f496e76616c69642061646d696e206164647265737300000000000000000000006044820152606490fd5b8b5162461bcd60e51b815260048101889052601d60248201527f456d706c6f7965722063616e6e6f742062652074686520776f726b65720000006044820152606490fd5b8b5162461bcd60e51b815260048101889052602560248201527f5061796d656e7420616d6f756e74206d75737420626520677265617465722074604482015264068616e20360dc1b6064820152608490fd5b8b5162461bcd60e51b815260048101889052601560248201527f496e76616c696420746f6b656e206164647265737300000000000000000000006044820152606490fd5b8b5162461bcd60e51b815260048101889052601660248201527f496e76616c696420776f726b65722061646472657373000000000000000000006044820152606490fd5b8b5162461bcd60e51b815260048101889052601860248201527f496e76616c696420656d706c6f796572206164647265737300000000000000006044820152606490fd5b81516001600160a01b0381168103620004f4578152908801908801620000e0565b600080fd5b634e487b7160e01b600052604160045260246000fd5b6040519190601f01601f191682016001600160401b03811183821017620004f957604052565b51906001600160a01b0382168203620004f45756fe60806040908082526004908136101561001757600080fd5b600091823560e01c91826310a9de601461139c5750816312065fe0146113055781632b68bb2d146110d85781633013ce29146110af5781633f4e4251146110905781634d547ada1461106757816350017f3e14610dcc5781636d0501f614610da3578163725a3b4b14610a965781637bf6c10414610a61578163881f227c14610661578163ae200e7914610638578163c19d93fb1461060f578163c2939d97146105f0578163c35905c6146105d1578163cfff63ca146103fe578163dc1a19e9146103d8578163e05f3721146101b957508063f851a4401461018d5763fbbf93a01461010257600080fd5b3461018a578060031936011261018a575060018060a01b0390816001541690610180836002541693600354169161016f60055460065460ff60095416916008549661014b611489565b9580519a8b9a8b5260208b01528901526060880152608087015260a0860190611587565b6101008060c0860152840190611547565b9060e08301520390f35b80fd5b5090346101b557816003193601126101b557905490516001600160a01b039091168152602090f35b5080fd5b839150346103d457826003193601126103d4576001546001600160a01b039190821633036103915760095460ff8116600681101561037e57806102059115908115610373575b506115aa565b600854610324575b60029060ff19161760095561025b6020838354168460025416906005549188885180968195829463a9059cbb60e01b84528a840160209093929193604081019460018060a01b031681520152565b03925af190811561031a5785916102ec575b50156102a9575060207f97317410cab7de9323eb972bc315e3726a4b33052d76ea01d1ca261a3df66fe29160025416926005549051908152a280f35b606490602084519162461bcd60e51b8352820152601760248201527f5061796d656e74207472616e73666572206661696c65640000000000000000006044820152fd5b61030d915060203d8111610313575b6103058183611451565b810190611605565b8561026d565b503d6102fb565b84513d87823e3d90fd5b61032c61166f565b61020d57835162461bcd60e51b8152602081840181905260248201527f4f7261636c6520766572696669636174696f6e206e6f7420636f6d706c6574656044820152606490fd5b6001915014876101ff565b634e487b7160e01b865260218352602486fd5b606490602084519162461bcd60e51b8352820152601960248201527f4f6e6c7920656d706c6f7965722063616e20617070726f7665000000000000006044820152fd5b8280fd5b8284346101b557816003193601126101b5576020906103f561166f565b90519015158152f35b905082346103d457602091826003193601126105cd576001600160a01b038135818116949193908590036105c95783865416330361059b57841561055a576003549380851661051857806001541686146104d657600254168514610495575050506001600160a01b03191681176003557fc7fcb98bb0eec420cf57a3179345050abb1dfea22b55328af13575b25b21d0468280a280f35b5162461bcd60e51b815291820152601960248201527f4d65646961746f722063616e6e6f7420626520776f726b657200000000000000604482015260649150fd5b505162461bcd60e51b815291820152601b60248201527f4d65646961746f722063616e6e6f7420626520656d706c6f7965720000000000604482015260649150fd5b505162461bcd60e51b815291820152601960248201527f4d65646961746f7220616c72656164792061737369676e656400000000000000604482015260649150fd5b5162461bcd60e51b815291820152601860248201527f496e76616c6964206d65646961746f7220616464726573730000000000000000604482015260649150fd5b5162461bcd60e51b815291820152600a60248201526927b7363c9030b236b4b760b11b604482015260649150fd5b8580fd5b8380fd5b8284346101b557816003193601126101b5576020906005549051908152f35b8284346101b557816003193601126101b5576020906006549051908152f35b8284346101b557816003193601126101b55760209061063660ff6009541691518092611587565bf35b8284346101b557816003193601126101b55760015490516001600160a01b039091168152602090f35b8284346101b557602090816003193601126103d45783359360ff85168095036105cd576003546001600160a01b03959086168015610a265733036109d9576009549160ff831660068110156109c657600303610983576064821161094057602485888354168651928380926370a0823160e01b825230878301525afa90811561081057879161090f575b508281028181048414821517156108fc576064900493848203938285116108e957859291906108da57508260ff1960095416176009555b8161081a575b03610764575b507fd45d961e06565b8dd3d1da8aa5d6bdf1ea1253ebf46c31573e5acd0125f2432693949560035416948351928352820152a280f35b8054600154855163a9059cbb60e01b81529089166001600160a01b0316818401908152602081018590529091879183918b169082908b90829060400103925af19081156108105787916107f3575b5061072e57835162461bcd60e51b81529081018590526016602482015275115b5c1b1bde595c881c99599d5b990819985a5b195960521b6044820152606490fd5b61080a9150863d8811610313576103058183611451565b886107b2565b85513d89823e3d90fd5b9086610859918a8554168b600254168b8a5180968195829463a9059cbb60e01b84528b840160209093929193604081019460018060a01b031681520152565b03925af19081156108d05788916108b3575b5015610878578390610728565b845162461bcd60e51b8152808301879052601560248201527415dbdc9ad95c881c185e5b595b9d0819985a5b1959605a1b6044820152606490fd5b6108ca9150873d8911610313576103058183611451565b8961086b565b86513d8a823e3d90fd5b60ff1916600217600955610722565b634e487b7160e01b895260118452602489fd5b634e487b7160e01b885260118352602488fd5b90508581813d8311610939575b6109268183611451565b810103126109355751886106eb565b8680fd5b503d61091c565b835162461bcd60e51b8152908101859052601860248201527f50657263656e74616765206d75737420626520302d31303000000000000000006044820152606490fd5b835162461bcd60e51b8152908101859052601e60248201527f436f6e7472616374206e6f7420696e20646973707574656420737461746500006044820152606490fd5b634e487b7160e01b875260218252602487fd5b5082608492519162461bcd60e51b8352820152602260248201527f4f6e6c79206d65646961746f722063616e207265736f6c766520646973707574604482015261657360f01b6064820152fd5b835162461bcd60e51b815280840186905260156024820152741359591a585d1bdc881b9bdd08185cdcda59db9959605a1b6044820152606490fd5b8284346101b557816003193601126101b557610a9290610a7f611489565b9051918291602083526020830190611547565b0390f35b839150346103d4576020806003193601126105cd5767ffffffffffffffff9282358481116105c957366023820112156105c957808401359485116105c957602490368287830101116109355760018054909590336001600160a01b0391821614908115610d95575b5015610d49576009549060ff82166006811015610d37578088610b2b9215918215610d2d575b50506115aa565b8715610ceb575090600387939260ff191617600955610b4b600754611417565b601f8111610c7a575b508795601f8411600114610bd857838091847f28b099eb575e23e32becd7c30dc8f9b2f98e370cdbf9841ea3338d9000402a25998c94610bcb575b50501b906000198560031b1c1916176007555b82845195808752860152018284013784818584010152813394601f80199101168101030190a280f35b850101359250848c610b8f565b600789527fa66cc928b5edb82af9bd49922954155ab7b0942694bea4ce44661d9a8736c688601f1985168a5b818110610c60575097857f28b099eb575e23e32becd7c30dc8f9b2f98e370cdbf9841ea3338d9000402a259910610c44575b505083811b01600755610ba2565b8301840135600019600387901b60f8161c191690558980610c36565b8985018601358355988801988a9650918301918801610c04565b90919250600788527fa66cc928b5edb82af9bd49922954155ab7b0942694bea4ce44661d9a8736c688601f880160051c810191868910610ce1575b8894939291601f89920160051c01915b828110610cd3575050610b54565b8a8155899550889101610cc5565b9091508190610cb5565b845162461bcd60e51b81529081018690526017818501527f4469737075746520726561736f6e2072657175697265640000000000000000006044820152606490fd5b149050888c610b24565b634e487b7160e01b8a5260218252848afd5b835162461bcd60e51b81529081018590526021818401527f4f6e6c7920636f6e747261637420706172746965732063616e206469737075746044820152606560f81b6064820152608490fd5b905060025416331489610afe565b8284346101b557816003193601126101b55760035490516001600160a01b039091168152602090f35b839150346103d457602091826003193601126105cd5781359283156110265760ff6009541660068110159081611013578015918215611006575b8215610fe2575b505015610fa157825482516323b872dd60e01b81523381860152306024820152604481018690526001600160a01b03918390829060649082908b9087165af1908115610f97578791610f7a575b5015610f3f57600554858101809111610f2c579082916005558454169360248451809681936370a0823160e01b835230908301525afa908115610f22578591610ecf575b7ff900f4ee3578ff749ef01dc0135667bceaab8c36e686db162e0ee387c24f10eb935082519485528401523392a280f35b80915083813d8311610f1b575b610ee68183611451565b81010312610f17577ff900f4ee3578ff749ef01dc0135667bceaab8c36e686db162e0ee387c24f10eb925190610e9e565b8480fd5b503d610edc565b82513d87823e3d90fd5b634e487b7160e01b875260118552602487fd5b50905162461bcd60e51b8152918201526016602482015275151bdc081d5c081d1c985b9cd9995c8819985a5b195960521b6044820152606490fd5b610f919150833d8511610313576103058183611451565b87610e5a565b84513d89823e3d90fd5b905162461bcd60e51b815291820152601e60248201527f43616e6e6f7420746f7020757020696e2063757272656e7420737461746500006044820152606490fd5b909150610ff3576003148680610e0d565b634e487b7160e01b865260218452602486fd5b5060018114915086610e06565b634e487b7160e01b875260218552602487fd5b905162461bcd60e51b815291820152601d60248201527f416d6f756e74206d7573742062652067726561746572207468616e20300000006044820152606490fd5b8284346101b557816003193601126101b55760025490516001600160a01b039091168152602090f35b8284346101b557816003193601126101b5576020906008549051908152f35b839150346103d457826003193601126103d4575490516001600160a01b03909116815260209150f35b839150346103d457826003193601126103d4576001546001600160a01b0390811690338290036112c2576009549260ff841660068110156109c65761127f57818154168551936370a0823160e01b855230838601526020958686602481865afa958615611275578996611241575b5060ff19166005176009558461118b575b505050907f92ce3e963127bbf0719441667d3155d31dc2687e0e47b8af94401c65362107549291600154169351908152a280f35b865163a9059cbb60e01b81526001600160a01b03909116838201908152602081018690529091869183919082908b90829060400103925af190811561123757879161121a575b50156111de578080611157565b845162461bcd60e51b815290810184905260166024820152751499599d5b99081d1c985b9cd9995c8819985a5b195960521b6044820152606490fd5b6112319150853d8711610313576103058183611451565b876111d1565b86513d89823e3d90fd5b9095508681813d831161126e575b6112598183611451565b8101031261126a5751946005611146565b8880fd5b503d61124f565b88513d8b823e3d90fd5b606490602086519162461bcd60e51b8352820152601c60248201527f436f6e7472616374206e6f7420696e2066756e646564207374617465000000006044820152fd5b835162461bcd60e51b8152602081850152601860248201527f4f6e6c7920656d706c6f7965722063616e2063616e63656c00000000000000006044820152606490fd5b905082346103d457826003193601126103d457815481516370a0823160e01b81523093810193909352602090839060249082906001600160a01b03165afa91821561139257839261135b575b6020838351908152f35b9091506020813d821161138a575b8161137660209383611451565b810103126103d45760209250519083611351565b3d9150611369565b81513d85823e3d90fd5b8490843461018a57602036600319011261018a57508235926008548410156113e0576020836113ca86611622565b905491519160018060a01b039160031b1c168152f35b62461bcd60e51b82526020908201526013602482015272496e646578206f7574206f6620626f756e647360681b6044820152606490fd5b90600182811c92168015611447575b602083101461143157565b634e487b7160e01b600052602260045260246000fd5b91607f1691611426565b90601f8019910116810190811067ffffffffffffffff82111761147357604052565b634e487b7160e01b600052604160045260246000fd5b604051906000826007549161149d83611417565b8083529260019081811690811561152557506001146114c6575b506114c492500383611451565b565b6007600090815291507fa66cc928b5edb82af9bd49922954155ab7b0942694bea4ce44661d9a8736c6885b84831061150a57506114c49350508101602001386114b7565b81935090816020925483858a010152019101909185926114f1565b9050602092506114c494915060ff191682840152151560051b820101386114b7565b919082519283825260005b848110611573575050826000602080949584010152601f8019910116010190565b602081830181015184830182015201611552565b9060068210156115945752565b634e487b7160e01b600052602160045260246000fd5b156115b157565b60405162461bcd60e51b815260206004820152602660248201527f436f6e7472616374206e6f7420696e2066756e646564206f722061637469766560448201526520737461746560d01b6064820152608490fd5b9081602091031261161d5751801515810361161d5790565b600080fd5b6008548110156116595760086000527ff3f7a9fe364faab93b216da50a3214154f22a0a2b415b23a84c8169e8b636ee30190600090565b634e487b7160e01b600052603260045260246000fd5b60085460005b818110611683575050600190565b61168c81611622565b90546040805163fa08c3f560e01b81523060048201529092909160209182918491602491839160031b1c6001600160a01b03165afa9283156117235750600092611706575b5050156116ff5760001981146116e957600101611675565b634e487b7160e01b600052601160045260246000fd5b5050600090565b61171c9250803d10610313576103058183611451565b38806116d1565b513d6000823e3d90fdfea2646970667358221220a053f16beba5359a757253b1119010621142a1a6e803b307dfa1a8aeecce09bc64736f6c63430008140033",
  "linkReferences": {},
  "deployedLinkReferences": {}
}