{
  "_format": "hh-sol-artifact-1",
  "contractName": "WorkContractFactory",
  "sourceName": "contracts/WorkContractFactory.sol",
  "abi": [
    {
      "inputs": [
        {
          "internalType": "address",
          "name": "_usdcAddress",
          "type": "address"
        },
        {
          "internalType": "address",
          "name": "_admin",
          "type": "address"
        }
      ],
      "stateMutability": "nonpayable",
      "type": "constructor"
    },
    {
      "anonymous": false,
      "inputs": [
        {
          "indexed": true,
          "internalType": "address",
          "name": "employer",
          "type": "address"
        },
        {
          "indexed": false,
          "internalType": "uint256",
          "name": "contractCount",
          "type": "uint256"
        },
        {
          "indexed": false,
          "internalType": "uint256",
          "name": "totalAmount",
          "type": "uint256"
        }
      ],
      "name": "BatchDeployed",
      "type": "event"
    },
    {
      "anonymous": false,
      "inputs": [
        {
          "indexed": true,
          "internalType": "address",
          "name": "contractAddress",
          "type": "address"
        },
        {
          "indexed": true,
          "internalType": "address",
          "name": "employer",
          "type": "address"
        },
        {
          "indexed": true,
          "internalType": "address",
          "name": "worker",
          "type": "address"
        },
        {
          "indexed": false,
          "internalType": "uint256",
          "name": "amount",
          "type": "uint256"
        },
        {
          "indexed": false,
          "internalType": "uint256",
          "name": "jobId",
          "type": "uint256"
        },
        {
          "indexed": false,
          "internalType": "address",
          "name": "mediator",
          "type": "address"
        }
      ],
      "name": "ContractDeployed",
      "type": "event"
    },
    {
      "inputs": [],
      "name": "USDC",
      "outputs": [
        {
          "internalType": "contract IERC20",
          "name": "",
          "type": "address"
        }
      ],
      "stateMutability": "view",
      "type": "function"
    },
    {
      "inputs": [],
      "name": "admin",
      "outputs": [
        {
          "internalType": "address",
          "name": "",
          "type": "address"
        }
      ],
      "stateMutability": "view",
      "type": "function"
    },
    {
      "inputs": [
        {
          "internalType": "uint256",
          "name": "",
          "type": "uint256"
        }
      ],
      "name": "allContracts",
      "outputs": [
        {
          "internalType": "address",
          "name": "",
          "type": "address"
        }
      ],
      "stateMutability": "view",
      "type": "function"
    },
    {
      "inputs": [
        {
          "internalType": "address[]",
          "name": "workers",
          "type": "address[]"
        },
        {
          "internalType": "address[]",
          "name": "mediators",
          "type": "address[]"
        },
        {
          "internalType": "uint256[]",
          "name": "amounts",
          "type": "uint256[]"
        },
        {
          "internalType": "uint256[]",
          "name": "jobIds",
          "type": "uint256[]"
        }
      ],
      "name": "deployBatch",
      "outputs": [
        {
          "internalType": "address[]",
          "name": "contractAddresses",
          "type": "address[]"
        }
      ],
      "stateMutability": "nonpayable",
      "type": "function"
    },
    {
      "inputs": [
        {
          "internalType": "address",
          "name": "worker",
          "type": "address"
        },
        {
          "internalType": "address",
          "name": "mediator",
          "type": "address"
        },
        {
          "internalType": "uint256",
          "name": "amount",
          "type": "uint256"
        },
        {
          "internalType": "uint256",
          "name": "jobId",
          "type": "uint256"
        }
      ],
      "name": "deployContract",
      "outputs": [
        {
          "internalType": "address",
          "name": "contractAddress",
          "type": "address"
        }
      ],
      "stateMutability": "nonpayable",
      "type": "function"
    },
    {
      "inputs": [
        {
          "internalType": "address",
          "name": "",
          "type": "address"
        },
        {
          "internalType": "uint256",
          "name": "",
          "type": "uint256"
        }
      ],
      "name": "employerContracts",
      "outputs": [
        {
          "internalType": "address",
          "name": "",
          "type": "address"
        }
      ],
      "stateMutability": "view",
      "type": "function"
    },
    {
      "inputs": [
        {
          "internalType": "uint256",
          "name": "index",
          "type": "uint256"
        }
      ],
      "name": "getContractAt",
      "outputs": [
        {
          "internalType": "address",
          "name": "",
          "type": "address"
        }
      ],
      "stateMutability": "view",
      "type": "function"
    },
    {
      "inputs": [
        {
          "internalType": "address",
          "name": "employer",
          "type": "address"
        }
      ],
      "name": "getEmployerContractCount",
      "outputs": [
        {
          "internalType": "uint256",
          "name": "",
          "type": "uint256"
        }
      ],
      "stateMutability": "view",
      "type": "function"
    },
    {
      "inputs": [
        {
          "internalType": "address",
          "name": "employer",
          "type": "address"
        }
      ],
      "name": "getEmployerContracts",
      "outputs": [
        {
          "internalType": "address[]",
          "name": "",
          "type": "address[]"
        }
      ],
      "stateMutability": "view",
      "type": "function"
    },
    {
      "inputs": [],
      "name": "getTotalContracts",
      "outputs": [
        {
          "internalType": "uint256",
          "name": "",
          "type": "uint256"
        }
      ],
      "stateMutability": "view",
      "type": "function"
    }
  ],
  "bytecode": "0x60c03461014657601f6123a638819003918201601f19168301916001600160401b0383118484101761014b57808492604094855283398101031261014657610052602061004b83610161565b9201610161565b906001600160a01b03908116908115610101578216156100bc5760805260a052604051612230908161017682396080518181816102220152818161045e01528181610659015281816107b10152610888015260a05181818160b0015281816102cf01526107e90152f35b60405162461bcd60e51b815260206004820152601560248201527f496e76616c69642061646d696e206164647265737300000000000000000000006044820152606490fd5b60405162461bcd60e51b815260206004820152601460248201527f496e76616c6964205553444320616464726573730000000000000000000000006044820152606490fd5b600080fd5b634e487b7160e01b600052604160045260246000fd5b51906001600160a01b03821682036101465756fe60808060405260043610156200001457600080fd5b60003560e01c9081633121d6f41462000b4957508063376ee5ec1462000554578063534860cc14620005345780636f427a8d14620004f657806379b0676b146200048d57806389a302711462000446578063b78fc122146200018b578063e54e26b91462000144578063f61cd86c14620000e45763f851a440146200009857600080fd5b34620000df576000366003190112620000df576040517f00000000000000000000000000000000000000000000000000000000000000006001600160a01b03168152602090f35b600080fd5b34620000df576040366003190112620000df576200010162000bd8565b6024359060018060a01b03809116600052600060205260406000208054831015620000df57602092620001349162000ca1565b9190546040519260031b1c168152f35b34620000df576020366003190112620000df57600435600154811015620000df576200017260209162000c69565b905460405160039290921b1c6001600160a01b03168152f35b34620000df576080366003190112620000df57620001a862000bd8565b6024356001600160a01b0380821690818303620000df5760443590606435620001d383151562000cba565b620001fd82871694620001e886151562000cfc565b620001f63387141562000d3a565b1562000d87565b6040516323b872dd60e01b8152336004820152306024820152604481018490526020967f00000000000000000000000000000000000000000000000000000000000000008416939188816064816000895af1801562000402576200026b9160009162000424575b5062000e11565b6040519061129c80830183811067ffffffffffffffff8211176200040e578588888c8796620002fa9662000f5f89393386526001600160a01b03908116602087015290811660408601529081166060850152608084019190915260a08301919091527f00000000000000000000000000000000000000000000000000000000000000001660c082015260e00190565b03906000f08015620004025760405163a9059cbb60e01b815291166001600160a01b03811660048301526024820185905295909287908490816000816044810103925af191821562000402576200037e7fa5fa5536e0fad8a00858bcab2a809817c9a830a09050ef7cb235e4410aacb649938895600091620003ce575b5062000e6c565b33600052600088526200039684604060002062000eef565b620003a18462000eaf565b6040805195865260208601919091526001600160a01b0391909116908401523392606090a4604051908152f35b620003f391508a3d8c11620003fa575b620003ea818362000dd4565b81019062000df7565b8a62000377565b503d620003de565b6040513d6000823e3d90fd5b634e487b7160e01b600052604160045260246000fd5b6200043f91508a3d8c11620003fa57620003ea818362000dd4565b8a62000264565b34620000df576000366003190112620000df576040517f00000000000000000000000000000000000000000000000000000000000000006001600160a01b03168152602090f35b34620000df576020366003190112620000df57600435600154811015620004bb576200017260209162000c69565b60405162461bcd60e51b8152602060048201526013602482015272496e646578206f7574206f6620626f756e647360681b6044820152606490fd5b34620000df576020366003190112620000df576001600160a01b036200051b62000bd8565b1660005260006020526020604060002054604051908152f35b34620000df576000366003190112620000df576020600154604051908152f35b34620000df576080366003190112620000df5760043567ffffffffffffffff8111620000df576200058a90369060040162000c35565b9060243567ffffffffffffffff8111620000df57620005ae90369060040162000c35565b60449391933567ffffffffffffffff8111620000df57620005d490369060040162000c35565b94909160643567ffffffffffffffff8111620000df57620005fa90369060040162000c35565b851562000b16578583148062000b0c575b8062000b02575b1562000ac55760009460005b87811062000a0857506040516323b872dd60e01b81523360048201523060248201526044810187905260208160648160006001600160a01b037f0000000000000000000000000000000000000000000000000000000000000000165af1801562000402576200069691600091620009e4575062000e11565b620006a18762000f45565b97620006b1604051998a62000dd4565b878952601f19620006c28962000f45565b013660208b013760005b8881106200071d57620007198a8a8a60405191825260208201527f8616a71840b173d97dd0402fc0b60704b21da96748418320f20840b1b5c5bef160403392a26040519182918262000bef565b0390f35b868b62000756836200074e62000741828f62000747620007418f9284908d62000f1f565b62000f30565b9762000f1f565b928762000f1f565b35906200076584888a62000f1f565b35926040519361129c85019385851067ffffffffffffffff8611176200040e578594620008169461129c62000f5f88393382526001600160a01b039485166020830152841660408201527f000000000000000000000000000000000000000000000000000000000000000084166060820152608081019190915260a08101919091527f000000000000000000000000000000000000000000000000000000000000000090911660c082015260e00190565b03906000f090811562000402578a51811015620009ce5762000882602062000853838f8f8460018060a01b038916918460051b0101528862000f1f565b60405163a9059cbb60e01b81526001600160a01b03861660048201529035602482015291829081906044820190565b038160007f00000000000000000000000000000000000000000000000000000000000000006001600160a01b03165af19283156200040257877fa5fa5536e0fad8a00858bcab2a809817c9a830a09050ef7cb235e4410aacb6498f620009728f878f978f90828f8f978f620009a49f916200095b620007418f620007419b889562000955879362000925620009629a6200096a9e600091620009aa575062000e6c565b3360005260006020526200094660018060a01b038216604060002062000eef565b6001600160a01b031662000eaf565b62000f1f565b9a62000f1f565b359962000f1f565b359862000f1f565b6040805194855260208501969096526001600160a01b039081169584019590955284169333931691606090a462000f0f565b620006cc565b620009c7915060203d602011620003fa57620003ea818362000dd4565b3862000377565b634e487b7160e01b600052603260045260246000fd5b62000a01915060203d602011620003fa57620003ea818362000dd4565b8b62000264565b9562000a2362000a1a888c8562000f1f565b35151562000cba565b62000a856001600160a01b0362000a6c8b8262000a63620007418d8f62000a5b8562000a528585858b62000f1f565b16151562000cfc565b339562000f1f565b16141562000d3a565b62000a7d620007418a898b62000f1f565b161562000d87565b62000a92878b8462000f1f565b35810180911162000aaf5762000aa9909662000f0f565b6200061e565b634e487b7160e01b600052601160045260246000fd5b60405162461bcd60e51b8152602060048201526015602482015274082e4e4c2f240d8cadccee8d040dad2e6dac2e8c6d605b1b6044820152606490fd5b5085811462000612565b508588146200060b565b60405162461bcd60e51b815260206004820152600b60248201526a08adae0e8f240c4c2e8c6d60ab1b6044820152606490fd5b34620000df5760209081600319360112620000df576001600160a01b03918262000b7262000bd8565b16600052600081526040600020928354908184528284019460005282600020926000915b83831062000bbe57620007198662000bb1818a038262000dd4565b6040519182918262000bef565b845481168752958101956001948501949092019162000b96565b600435906001600160a01b0382168203620000df57565b6020908160408183019282815285518094520193019160005b82811062000c17575050505090565b83516001600160a01b03168552938101939281019260010162000c08565b9181601f84011215620000df5782359167ffffffffffffffff8311620000df576020808501948460051b010111620000df57565b600154811015620009ce5760016000527fb10e2d527612073b26eecdfd717e6a320cf44b4afac2b0732d9fcbe2b7fa0cf60190600090565b8054821015620009ce5760005260206000200190600090565b1562000cc257565b60405162461bcd60e51b81526020600482015260126024820152710416d6f756e74206d757374206265203e20360741b6044820152606490fd5b1562000d0457565b60405162461bcd60e51b815260206004820152600e60248201526d24b73b30b634b2103bb7b935b2b960911b6044820152606490fd5b1562000d4257565b60405162461bcd60e51b815260206004820152601960248201527f456d706c6f7965722063616e6e6f7420626520776f726b6572000000000000006044820152606490fd5b1562000d8f57565b60405162461bcd60e51b815260206004820152601f60248201527f4d65646961746f722061737369676e65642061667465722064697370757465006044820152606490fd5b90601f8019910116810190811067ffffffffffffffff8211176200040e57604052565b90816020910312620000df57518015158103620000df5790565b1562000e1957565b60405162461bcd60e51b815260206004820152602560248201527f55534443207472616e73666572206661696c6564202d20636865636b206170706044820152641c9bdd985b60da1b6064820152608490fd5b1562000e7457565b60405162461bcd60e51b81526020600482015260136024820152721554d110c8199d5b991a5b99c819985a5b1959606a1b6044820152606490fd5b600154600160401b8110156200040e5780600162000ed1920160015562000c69565b819291549060031b9160018060a01b03809116831b921b1916179055565b8054600160401b8110156200040e5762000ed19160018201815562000ca1565b600019811462000aaf5760010190565b9190811015620009ce5760051b0190565b356001600160a01b0381168103620000df5790565b67ffffffffffffffff81116200040e5760051b6020019056fe608034620003be57601f6200129c38819003918201601f191683019291906001600160401b03841183851017620003c3578160e09284926040968752833981010312620003be576200005181620003d9565b60209162000061838201620003d9565b916200006f858301620003d9565b916200007e60608201620003d9565b946080820151926200009860c060a08501519401620003d9565b6001600160a01b039182169690919087156200037a57811697881562000336578116918215620002f2578515620002a0578789146200025c57811695861562000218571694889493929190866200016c575b7fa37175a3415c4ec48c1ba6d18e2b563b5e88acf3b470b83ab91fa9eb741895f19660018060a01b03199182600054161760005588826001541617600155898260025416176002558160035416176003556004541617600455826005558160065560ff19600854166008558351928352820152a351610ead9081620003ef8239f35b91939590929450868114620001d457878114620001905794929091889492620000ea565b885162461bcd60e51b815260048101859052601960248201527f4d65646961746f722063616e6e6f7420626520776f726b6572000000000000006044820152606490fd5b885162461bcd60e51b815260048101859052601b60248201527f4d65646961746f722063616e6e6f7420626520656d706c6f79657200000000006044820152606490fd5b895162461bcd60e51b815260048101859052601560248201527f496e76616c69642061646d696e206164647265737300000000000000000000006044820152606490fd5b895162461bcd60e51b815260048101859052601d60248201527f456d706c6f7965722063616e6e6f742062652074686520776f726b65720000006044820152606490fd5b895162461bcd60e51b815260048101859052602560248201527f5061796d656e7420616d6f756e74206d75737420626520677265617465722074604482015264068616e20360dc1b6064820152608490fd5b895162461bcd60e51b815260048101859052601560248201527f496e76616c696420746f6b656e206164647265737300000000000000000000006044820152606490fd5b895162461bcd60e51b815260048101859052601660248201527f496e76616c696420776f726b65722061646472657373000000000000000000006044820152606490fd5b895162461bcd60e51b815260048101859052601860248201527f496e76616c696420656d706c6f796572206164647265737300000000000000006044820152606490fd5b600080fd5b634e487b7160e01b600052604160045260246000fd5b51906001600160a01b0382168203620003be5756fe60806040908082526004908136101561001757600080fd5b600091823560e01c91826312065fe014610b9a575081633013ce2914610b715781634d547ada14610b485781636d0501f614610b1f578163725a3b4b146108255781637bf6c104146107f457816389e1e82a146105cb578163ae200e79146105a2578163c19d93fb14610579578163c2939d971461055a578163c35905c61461053b578163cfff63ca14610328578163e05f37211461017857508063f851a4401461014c5763fbbf93a0146100cb57600080fd5b346101495780600319360112610149575060018060a01b0390610145826001541691610134846002541694600354166005546006549060ff6008541692610110610ca1565b958051998a998a5260208a01528801526060870152608086015260a0850190610d9f565b60e060c084015260e0830190610d5f565b0390f35b80fd5b509034610174578160031936011261017457905490516001600160a01b039091168152602090f35b5080fd5b839150346103245782600319360112610324576001546001600160a01b039190821633036102e15760085460ff8116828110156102ce57906101bc60019215610dc2565b60ff1916176008558054600254600554855163a9059cbb60e01b81529185166001600160a01b031682850190815260208082019290925291929091839186169082908990829060400103925af19081156102c4578591610296575b5015610253575060207f97317410cab7de9323eb972bc315e3726a4b33052d76ea01d1ca261a3df66fe29160025416926005549051908152a280f35b606490602084519162461bcd60e51b8352820152601760248201527f5061796d656e74207472616e73666572206661696c65640000000000000000006044820152fd5b6102b7915060203d81116102bd575b6102af8183610c69565b810190610e0e565b85610217565b503d6102a5565b84513d87823e3d90fd5b634e487b7160e01b865260218352602486fd5b606490602084519162461bcd60e51b8352820152601960248201527f4f6e6c7920656d706c6f7965722063616e20617070726f7665000000000000006044820152fd5b8280fd5b905082346103245760209182600319360112610537576001600160a01b03813581811694919390859003610533578386541633036104f25760ff60085416838110156104df57600261037a9114610e2b565b841561049e576003549380851661045c578060015416861461041a576002541685146103d9575050506001600160a01b03191681176003557fc7fcb98bb0eec420cf57a3179345050abb1dfea22b55328af13575b25b21d0468280a280f35b5162461bcd60e51b815291820152601960248201527f4d65646961746f722063616e6e6f7420626520776f726b657200000000000000604482015260649150fd5b505162461bcd60e51b815291820152601b60248201527f4d65646961746f722063616e6e6f7420626520656d706c6f7965720000000000604482015260649150fd5b505162461bcd60e51b815291820152601960248201527f4d65646961746f7220616c72656164792061737369676e656400000000000000604482015260649150fd5b5162461bcd60e51b815291820152601860248201527f496e76616c6964206d65646961746f7220616464726573730000000000000000604482015260649150fd5b634e487b7160e01b875260218452602487fd5b5162461bcd60e51b815291820152601e60248201527f4f6e6c792061646d696e2063616e2061737369676e206d65646961746f720000604482015260649150fd5b8580fd5b8380fd5b8284346101745781600319360112610174576020906005549051908152f35b8284346101745781600319360112610174576020906006549051908152f35b8284346101745781600319360112610174576020906105a060ff6008541691518092610d9f565bf35b82843461017457816003193601126101745760015490516001600160a01b039091168152602090f35b828434610174576020908160031936011261032457833593841515948581036107f0576003546001600160a01b039290831680156107b55733036107675760085460ff8116828110156107425760026106249114610e2b565b821561075c578360025416925b156107555760015b828110156107425760ff1660ff1991909116176008558054600554855163a9059cbb60e01b81526001600160a01b0385168185019081526020810192909252918791839187169082908b90829060400103925af190811561073857879161071b575b50156106d857507f798e68462b6674448ea3db700362faf55bfcb6099c8067a1c74779939526f8a99394956005549584519687528601521692a280f35b835162461bcd60e51b8152908101859052601a60248201527f5265736f6c7574696f6e207472616e73666572206661696c65640000000000006044820152606490fd5b6107329150863d88116102bd576102af8183610c69565b8861069b565b85513d89823e3d90fd5b634e487b7160e01b885260218352602488fd5b6003610639565b836001541692610631565b835162461bcd60e51b8152908101859052602260248201527f4f6e6c79206d65646961746f722063616e207265736f6c766520646973707574604482015261657360f01b6064820152608490fd5b845162461bcd60e51b815280830187905260156024820152741359591a585d1bdc881b9bdd08185cdcda59db9959605a1b6044820152606490fd5b8480fd5b82843461017457816003193601126101745761014590610812610ca1565b9051918291602083526020830190610d5f565b83915034610324576020806003193601126105375767ffffffffffffffff928235848111610533573660238201121561053357808401359485116105335760249036828783010111610b1b5760018054909590336001600160a01b0391821614908115610b0d575b5015610ac1576008549060ff821681811015610aaf576108ad9015610dc2565b8715610a6d575090600287939260ff1916176008556108cd600754610c2f565b601f81116109fc575b508795601f841160011461095a57838091847f28b099eb575e23e32becd7c30dc8f9b2f98e370cdbf9841ea3338d9000402a25998c9461094d575b50501b906000198560031b1c1916176007555b82845195808752860152018284013784818584010152813394601f80199101168101030190a280f35b850101359250848c610911565b600789527fa66cc928b5edb82af9bd49922954155ab7b0942694bea4ce44661d9a8736c688601f1985168a5b8181106109e2575097857f28b099eb575e23e32becd7c30dc8f9b2f98e370cdbf9841ea3338d9000402a2599106109c6575b505083811b01600755610924565b8301840135600019600387901b60f8161c1916905589806109b8565b8985018601358355988801988a9650918301918801610986565b90919250600788527fa66cc928b5edb82af9bd49922954155ab7b0942694bea4ce44661d9a8736c688601f880160051c810191868910610a63575b8894939291601f89920160051c01915b828110610a555750506108d6565b8a8155899550889101610a47565b9091508190610a37565b845162461bcd60e51b81529081018690526017818501527f4469737075746520726561736f6e2072657175697265640000000000000000006044820152606490fd5b634e487b7160e01b8a5260218252848afd5b835162461bcd60e51b81529081018590526021818401527f4f6e6c7920636f6e747261637420706172746965732063616e206469737075746044820152606560f81b6064820152608490fd5b90506002541633148961088d565b8680fd5b82843461017457816003193601126101745760035490516001600160a01b039091168152602090f35b82843461017457816003193601126101745760025490516001600160a01b039091168152602090f35b839150346103245782600319360112610324575490516001600160a01b03909116815260209150f35b8484923461053757836003193601126105375780546370a0823160e01b84523091840191909152602090839060249082906001600160a01b03165afa918215610c25578392610bee575b6020838351908152f35b9091506020813d8211610c1d575b81610c0960209383610c69565b810103126103245760209250519083610be4565b3d9150610bfc565b81513d85823e3d90fd5b90600182811c92168015610c5f575b6020831014610c4957565b634e487b7160e01b600052602260045260246000fd5b91607f1691610c3e565b90601f8019910116810190811067ffffffffffffffff821117610c8b57604052565b634e487b7160e01b600052604160045260246000fd5b6040519060008260075491610cb583610c2f565b80835292600190818116908115610d3d5750600114610cde575b50610cdc92500383610c69565b565b6007600090815291507fa66cc928b5edb82af9bd49922954155ab7b0942694bea4ce44661d9a8736c6885b848310610d225750610cdc935050810160200138610ccf565b81935090816020925483858a01015201910190918592610d09565b905060209250610cdc94915060ff191682840152151560051b82010138610ccf565b919082519283825260005b848110610d8b575050826000602080949584010152601f8019910116010190565b602081830181015184830182015201610d6a565b906004821015610dac5752565b634e487b7160e01b600052602160045260246000fd5b15610dc957565b60405162461bcd60e51b815260206004820152601c60248201527f436f6e7472616374206e6f7420696e2066756e646564207374617465000000006044820152606490fd5b90816020910312610e2657518015158103610e265790565b600080fd5b15610e3257565b60405162461bcd60e51b815260206004820152601e60248201527f436f6e7472616374206e6f7420696e20646973707574656420737461746500006044820152606490fdfea26469706673582212206770c48a43d485e960ac9527915c17494dbe2dbe833c4509a2ac2625a03be25364736f6c63430008140033a2646970667358221220dc0150e1b20aa706372d9b3ab116aabc41317a8912f121bfce488d8550609c8a64736f6c63430008140033",
  "linkReferences": {},
  "deployedLinkReferences": {}
}