{
  "_format": "hh-sol-artifact-1",
  "contractName": "WorkContractFactory",
  "sourceName": "src/WorkContractFactory.sol",
  "abi": [
    {
      "inputs": [
        {
          "internalType": "address",
          "name": "_usdcAddress",
          "type": "address"
        },
        {
          "internalType": "address",
          "name": "_admin",
          "type": "address"
        }
      ],
      "stateMutability": "nonpayable",
      "type": "constructor"
    },
    {
      "anonymous": false,
      "inputs": [
        {
          "indexed": true,
          "internalType": "address",
          "name": "employer",
          "type": "address"
        },
        {
          "indexed": false,
          "internalType": "uint256",
          "name": "contractCount",
          "type": "uint256"
        },
        {
          "indexed": false,
          "internalType": "uint256",
          "name": "totalAmount",
          "type": "uint256"
        }
      ],
      "name": "BatchDeployed",
      "type": "event"
    },
    {
      "anonymous": false,
      "inputs": [
        {
          "indexed": true,
          "internalType": "address",
          "name": "contractAddress",
          "type": "address"
        },
        {
          "indexed": true,
          "internalType": "address",
          "name": "employer",
          "type": "address"
        },
        {
          "indexed": true,
          "internalType": "address",
          "name": "worker",
          "type": "address"
        },
        {
          "indexed": false,
          "internalType": "uint256",
          "name": "amount",
          "type": "uint256"
        },
        {
          "indexed": false,
          "internalType": "uint256",
          "name": "jobId",
          "type": "uint256"
        },
        {
          "indexed": false,
          "internalType": "address",
          "name": "mediator",
          "type": "address"
        },
        {
          "indexed": false,
          "internalType": "string[]",
          "name": "oracleTypes",
          "type": "string[]"
        }
      ],
      "name": "ContractDeployed",
      "type": "event"
    },
    {
      "anonymous": false,
      "inputs": [
        {
          "indexed": false,
          "internalType": "string",
          "name": "oracleType",
          "type": "string"
        },
        {
          "indexed": false,
          "internalType": "address",
          "name": "oracleAddress",
          "type": "address"
        }
      ],
      "name": "OracleRegistered",
      "type": "event"
    },
    {
      "anonymous": false,
      "inputs": [
        {
          "indexed": false,
          "internalType": "string",
          "name": "oracleType",
          "type": "string"
        }
      ],
      "name": "OracleRemoved",
      "type": "event"
    },
    {
      "inputs": [],
      "name": "USDC",
      "outputs": [
        {
          "internalType": "contract IERC20",
          "name": "",
          "type": "address"
        }
      ],
      "stateMutability": "view",
      "type": "function"
    },
    {
      "inputs": [],
      "name": "admin",
      "outputs": [
        {
          "internalType": "address",
          "name": "",
          "type": "address"
        }
      ],
      "stateMutability": "view",
      "type": "function"
    },
    {
      "inputs": [
        {
          "internalType": "uint256",
          "name": "",
          "type": "uint256"
        }
      ],
      "name": "allContracts",
      "outputs": [
        {
          "internalType": "address",
          "name": "",
          "type": "address"
        }
      ],
      "stateMutability": "view",
      "type": "function"
    },
    {
      "inputs": [
        {
          "internalType": "address[]",
          "name": "workers",
          "type": "address[]"
        },
        {
          "internalType": "address[]",
          "name": "mediators",
          "type": "address[]"
        },
        {
          "internalType": "uint256[]",
          "name": "amounts",
          "type": "uint256[]"
        },
        {
          "internalType": "uint256[]",
          "name": "jobIds",
          "type": "uint256[]"
        },
        {
          "internalType": "string[][]",
          "name": "oracleTypesPerContract",
          "type": "string[][]"
        }
      ],
      "name": "deployBatch",
      "outputs": [
        {
          "internalType": "address[]",
          "name": "contractAddresses",
          "type": "address[]"
        }
      ],
      "stateMutability": "nonpayable",
      "type": "function"
    },
    {
      "inputs": [
        {
          "internalType": "address",
          "name": "worker",
          "type": "address"
        },
        {
          "internalType": "address",
          "name": "mediator",
          "type": "address"
        },
        {
          "internalType": "uint256",
          "name": "amount",
          "type": "uint256"
        },
        {
          "internalType": "uint256",
          "name": "jobId",
          "type": "uint256"
        },
        {
          "internalType": "string[]",
          "name": "oracleTypes",
          "type": "string[]"
        }
      ],
      "name": "deployContract",
      "outputs": [
        {
          "internalType": "address",
          "name": "contractAddress",
          "type": "address"
        }
      ],
      "stateMutability": "nonpayable",
      "type": "function"
    },
    {
      "inputs": [
        {
          "internalType": "address",
          "name": "",
          "type": "address"
        },
        {
          "internalType": "uint256",
          "name": "",
          "type": "uint256"
        }
      ],
      "name": "employerContracts",
      "outputs": [
        {
          "internalType": "address",
          "name": "",
          "type": "address"
        }
      ],
      "stateMutability": "view",
      "type": "function"
    },
    {
      "inputs": [
        {
          "internalType": "uint256",
          "name": "index",
          "type": "uint256"
        }
      ],
      "name": "getContractAt",
      "outputs": [
        {
          "internalType": "address",
          "name": "",
          "type": "address"
        }
      ],
      "stateMutability": "view",
      "type": "function"
    },
    {
      "inputs": [
        {
          "internalType": "address",
          "name": "_employer",
          "type": "address"
        }
      ],
      "name": "getEmployerContractCount",
      "outputs": [
        {
          "internalType": "uint256",
          "name": "",
          "type": "uint256"
        }
      ],
      "stateMutability": "view",
      "type": "function"
    },
    {
      "inputs": [
        {
          "internalType": "address",
          "name": "_employer",
          "type": "address"
        }
      ],
      "name": "getEmployerContracts",
      "outputs": [
        {
          "internalType": "address[]",
          "name": "",
          "type": "address[]"
        }
      ],
      "stateMutability": "view",
      "type": "function"
    },
    {
      "inputs": [],
      "name": "getTotalContracts",
      "outputs": [
        {
          "internalType": "uint256",
          "name": "",
          "type": "uint256"
        }
      ],
      "stateMutability": "view",
      "type": "function"
    },
    {
      "inputs": [
        {
          "internalType": "string",
          "name": "",
          "type": "string"
        }
      ],
      "name": "oracleRegistry",
      "outputs": [
        {
          "internalType": "address",
          "name": "",
          "type": "address"
        }
      ],
      "stateMutability": "view",
      "type": "function"
    },
    {
      "inputs": [
        {
          "internalType": "address",
          "name": "oracle",
          "type": "address"
        }
      ],
      "name": "registerOracle",
      "outputs": [],
      "stateMutability": "nonpayable",
      "type": "function"
    },
    {
      "inputs": [
        {
          "internalType": "string",
          "name": "_oracleType",
          "type": "string"
        }
      ],
      "name": "removeOracle",
      "outputs": [],
      "stateMutability": "nonpayable",
      "type": "function"
    }
  ],
  "bytecode": "0x60c0346200016057601f6200371438819003918201601f19168301916001600160401b038311848410176200016557808492604094855283398101031262000160576200005a602062000052836200017b565b92016200017b565b906001600160a01b039081169081156200011b57821615620000d65760805260a052604051613583908162000191823960805181818161071b0152818161090201528181610bbe01528181610d330152610dd2015260a05181818161011d0152818161022a015281816102e90152818161078c0152610d110152f35b60405162461bcd60e51b815260206004820152601560248201527f496e76616c69642061646d696e206164647265737300000000000000000000006044820152606490fd5b60405162461bcd60e51b815260206004820152601460248201527f496e76616c6964205553444320616464726573730000000000000000000000006044820152606490fd5b600080fd5b634e487b7160e01b600052604160045260246000fd5b51906001600160a01b0382168203620001605756fe60808060405260043610156200001457600080fd5b60003560e01c9081631ea666461462000a8d575080633121d6f414620009f8578063534860cc14620009d85780636f427a8d146200099a57806379b0676b146200093157806389a3027114620008ea578063b058bc171462000644578063bec108771462000598578063e54e26b91462000551578063e9babaec14620002b9578063f61cd86c1462000259578063f851a44014620002125763f867368214620000bc57600080fd5b346200020d576020806003193601126200020d576001600160401b036004358181116200020d57366023820112156200020d5780600401359182116200020d57602481019060248336920101116200020d576001600160a01b0362000145337f0000000000000000000000000000000000000000000000000000000000000000831614620011f4565b6040518383823784818581016002815203019020541615620001c85791620001c37fa28dc34059cd4716d51da651406dc8ff96399e3cf46725143a7f2855c68cf3949360405184828237838186810160028152030190206bffffffffffffffffffffffff60a01b81541690556040519383859485528401916200122e565b0390a1005b60405162461bcd60e51b815260048101849052601a60248201527f4f7261636c652074797065206e6f7420726567697374657265640000000000006044820152606490fd5b600080fd5b346200020d5760003660031901126200020d576040517f00000000000000000000000000000000000000000000000000000000000000006001600160a01b03168152602090f35b346200020d5760403660031901126200020d576200027662001113565b6024359060018060a01b038091166000526000602052604060002080548310156200020d57602092620002a991620011db565b9190546040519260031b1c168152f35b346200020d576020806003193601126200020d57620002d762001113565b6001600160a01b0390819062000311337f0000000000000000000000000000000000000000000000000000000000000000841614620011f4565b16908115620005135760405162d623e160e41b815291600083600481845afa928315620005075760009362000482575b508251156200044957604051918351928581818701956200036481838962001168565b810160028152030190205416620004045791606091620003f2937f88679c6b9a65e366aee26a435deded38d7c81270852a190337609addcb15f0759560405181818651620003b481838962001168565b81016002815203019020826bffffffffffffffffffffffff60a01b825416179055604051958694604086525180948160408801528787019062001168565b830152601f01601f19168101030190a1005b60405162461bcd60e51b815260048101859052601e60248201527f4f7261636c65207479706520616c7265616479207265676973746572656400006044820152606490fd5b60405162461bcd60e51b8152600481018590526011602482015270456d707479206f7261636c65207479706560781b6044820152606490fd5b9092503d806000833e6200049781836200112a565b81019084818303126200020d578051906001600160401b0382116200020d570181601f820112156200020d578051620004d0816200114c565b92620004e060405194856200112a565b8184528682840101116200020d57620004ff9186808501910162001168565b918462000341565b6040513d6000823e3d90fd5b60405162461bcd60e51b8152600481018490526016602482015275496e76616c6964206f7261636c65206164647265737360501b6044820152606490fd5b346200020d5760203660031901126200020d576004356001548110156200020d576200057f6020916200118d565b905460405160039290921b1c6001600160a01b03168152f35b346200020d5760203660031901126200020d576004356001600160401b0381116200020d57366023820112156200020d578060040135620005d9816200114c565b620005e860405191826200112a565b818152602081019136602482860101116200020d576020816000926024839701863783010152620006226040519283925192839162001168565b600290820190815281900382019020546040516001600160a01b039091168152f35b346200020d5760a03660031901126200020d576200066162001113565b602435906001600160a01b0390818316908184036200020d57608435926001600160401b03908185116200020d57620006a160009536906004016200109a565b96909260443594620006b58615156200124f565b620006df84821697620006ca89151562001291565b620006d8338a1415620012cf565b156200131c565b620006eb898662001670565b6040516323b872dd60e01b81523360048201523060248201526044810188905290919060208180606481010381897f0000000000000000000000000000000000000000000000000000000000000000169d8e5af1801562000507576200075b91600091620008c6575b5062001383565b60405191611dd1908184019484861090861117620008b05785948493620007b4936200177d86398a8d6064359889937f0000000000000000000000000000000000000000000000000000000000000000953390620013de565b03906000f0928315620005075760405163a9059cbb60e01b815293166001600160a01b038116600485015260248401869052966020908490816000816044810103925af18015620005075760209888956200083f62000871937f42fa957689c3074c0b395d5d1906d0fe95dd6764ce02be1aa67ecf63ee450f9a976000916200087c575b5062001460565b3360005260008b5262000857876040600020620014eb565b6200086287620014a3565b60405194859433998662001512565b0390a4604051908152f35b620008a191508d3d8f11620008a8575b6200089881836200112a565b81019062001369565b8d62000838565b503d6200088c565b634e487b7160e01b600052604160045260246000fd5b620008e3915060203d602011620008a8576200089881836200112a565b8c62000754565b346200020d5760003660031901126200020d576040517f00000000000000000000000000000000000000000000000000000000000000006001600160a01b03168152602090f35b346200020d5760203660031901126200020d576004356001548110156200095f576200057f6020916200118d565b60405162461bcd60e51b8152602060048201526013602482015272496e646578206f7574206f6620626f756e647360681b6044820152606490fd5b346200020d5760203660031901126200020d576001600160a01b03620009bf62001113565b1660005260006020526020604060002054604051908152f35b346200020d5760003660031901126200020d576020600154604051908152f35b346200020d576020806003193601126200020d576001600160a01b038062000a1f62001113565b1660005260008252604060002091604051809282855492838152019460005282600020926000915b83831062000a735762000a6f8662000a62818a03826200112a565b60405191829182620010cd565b0390f35b845481168752958101956001948501949092019162000a47565b346200020d5760a03660031901126200020d576004356001600160401b0381116200020d5762000ac29036906004016200109a565b6024929192356001600160401b0381116200020d5762000ae79036906004016200109a565b926044356001600160401b0381116200020d5762000b0a9036906004016200109a565b9290916064356001600160401b0381116200020d5762000b2f9036906004016200109a565b9690916084356001600160401b0381116200020d5762000b549036906004016200109a565b95909188156200106a57508783148062001060575b8062001056575b806200104c575b156200100f5760009960005b89811062000f4c57506040516323b872dd60e01b8152336004820152306024820152604481018c905260208160648160006001600160a01b037f0000000000000000000000000000000000000000000000000000000000000000165af18015620005075762000bfb9160009162000f28575062001383565b62000c0689620015fb565b9962000c166040519b8c6200112a565b898b52601f1962000c278b620015fb565b013660208d013760005b8a811062000c7e5762000a6f8c8c8f60405191825260208201527f8616a71840b173d97dd0402fc0b60704b21da96748418320f20840b1b5c5bef160403392a260405191829182620010cd565b87838b62000cd1848f62000cbc8f8d62000cc262000cbc8f62000cc99662000cb562000cae8a8098819562001613565b9062001670565b9b620015d5565b620015e6565b98620015d5565b9289620015d5565b359162000ce085878d620015d5565b359360405194611dd18601948686106001600160401b03871117620008b057869562000d6495611dd16200177d89397f0000000000000000000000000000000000000000000000000000000000000000947f00000000000000000000000000000000000000000000000000000000000000006001600160a01b0316923390620013de565b03906000f0908115620005075762000dcc91602062000d9d8f8e859162000d958360018060a01b038816926200165b565b5289620015d5565b60405163a9059cbb60e01b81526001600160a01b03841660048201529035602482015293849081906044820190565b038160007f00000000000000000000000000000000000000000000000000000000000000006001600160a01b03165af19081156200050757897f42fa957689c3074c0b395d5d1906d0fe95dd6764ce02be1aa67ecf63ee450f9a8f8f8f8f96888f928f958f958f8f9662000efe9f8662000ef5998f8262000cbc9762000eb562000cbc8362000ed39f9c819b62000eaf62000ecc9f9862000e7f62000ebc9a62000ec49e60009162000f04575062001460565b33600052600060205262000ea060018060a01b0382166040600020620014eb565b6001600160a01b0316620014a3565b620015d5565b9e620015d5565b359e620015d5565b359d620015d5565b9562001613565b9060405194859460018060a01b031699339960018060a01b0316988662001512565b0390a4620015c5565b62000c31565b62000f21915060203d602011620008a8576200089881836200112a565b3862000838565b62000f45915060203d602011620008a8576200089881836200112a565b8d62000754565b9a62000fcf8a62000fc762000cbc8f62000f7662000f6d8f83908b620015d5565b3515156200124f565b6001600160a01b039362000fbf9062000fa38662000f9a62000cbc86858e620015d5565b16151562001291565b8562000fb662000cbc8533948d620015d5565b161415620012cf565b898c620015d5565b16156200131c565b62000fdc8c8a85620015d5565b35810180911162000ff95762000ff3909b620015c5565b62000b83565b634e487b7160e01b600052601160045260246000fd5b60405162461bcd60e51b8152602060048201526015602482015274082e4e4c2f240d8cadccee8d040dad2e6dac2e8c6d605b1b6044820152606490fd5b5087861462000b77565b5087891462000b70565b5087871462000b69565b62461bcd60e51b815260206004820152600b60248201526a08adae0e8f240c4c2e8c6d60ab1b6044820152606490fd5b9181601f840112156200020d578235916001600160401b0383116200020d576020808501948460051b0101116200020d57565b6020908160408183019282815285518094520193019160005b828110620010f5575050505090565b83516001600160a01b031685529381019392810192600101620010e6565b600435906001600160a01b03821682036200020d57565b90601f801991011681019081106001600160401b03821117620008b057604052565b6001600160401b038111620008b057601f01601f191660200190565b60005b8381106200117c5750506000910152565b81810151838201526020016200116b565b600154811015620011c55760016000527fb10e2d527612073b26eecdfd717e6a320cf44b4afac2b0732d9fcbe2b7fa0cf60190600090565b634e487b7160e01b600052603260045260246000fd5b8054821015620011c55760005260206000200190600090565b15620011fc57565b60405162461bcd60e51b815260206004820152600a60248201526927b7363c9030b236b4b760b11b6044820152606490fd5b908060209392818452848401376000828201840152601f01601f1916010190565b156200125757565b60405162461bcd60e51b81526020600482015260126024820152710416d6f756e74206d757374206265203e20360741b6044820152606490fd5b156200129957565b60405162461bcd60e51b815260206004820152600e60248201526d24b73b30b634b2103bb7b935b2b960911b6044820152606490fd5b15620012d757565b60405162461bcd60e51b815260206004820152601960248201527f456d706c6f7965722063616e6e6f7420626520776f726b6572000000000000006044820152606490fd5b156200132457565b60405162461bcd60e51b815260206004820152601f60248201527f4d65646961746f722061737369676e65642061667465722064697370757465006044820152606490fd5b908160209103126200020d575180151581036200020d5790565b156200138b57565b60405162461bcd60e51b815260206004820152602560248201527f55534443207472616e73666572206661696c6564202d20636865636b206170706044820152641c9bdd985b60da1b6064820152608490fd5b91939690610120939691610100928385019760018060a01b03809b81809c818098168a5260209d8e9c168c8b0152166040890152166060870152608086015260a08501521660c083015260e082015286518094520194019160005b8281106200144957505050505090565b835185168652948101949281019260010162001439565b156200146857565b60405162461bcd60e51b81526020600482015260136024820152721554d110c8199d5b991a5b99c819985a5b1959606a1b6044820152606490fd5b60015490600160401b821015620008b057620014ca826001620014e994016001556200118d565b90919082549060031b9160018060a01b03809116831b921b1916179055565b565b90815491600160401b831015620008b05782620014ca916001620014e995018155620011db565b9492908391608087019187526020938488015260018060a01b03166040870152608060608701525260a084019360a08360051b82010194846000925b85841062001560575050505050505090565b90919293949596609f198282030184528735601e19843603018112156200020d5783018681019190356001600160401b0381116200020d5780360383136200020d57620015b3889283926001956200122e565b9901940194019295949391906200154e565b600019811462000ff95760010190565b9190811015620011c55760051b0190565b356001600160a01b03811681036200020d5790565b6001600160401b038111620008b05760051b60200190565b9190811015620011c55760051b81013590601e19813603018212156200020d5701908135916001600160401b0383116200020d576020018260051b360381136200020d579190565b8051821015620011c55760209160051b010190565b906200167c81620015fb565b916040906200168e825194856200112a565b828452601f196200169f84620015fb565b0190602091368387013760005b848110620016bc57505050505090565b8060051b820135601e19833603018112156200020d5782018035906001600160401b0382116200020d5784019080360382136200020d57808651928337600290820190815281900384019020546001600160a01b0316801562001738579062001732916200172b82896200165b565b52620015c5565b620016ac565b845162461bcd60e51b815260048101859052601860248201527f556e72656769737465726564206f7261636c65207479706500000000000000006044820152606490fdfe60406080815234620004f45762001dd1803803806200001e816200050f565b92833981019061010081830312620004f4576200003b8162000535565b916020916200004c83820162000535565b926200005a86830162000535565b92620000696060840162000535565b9560808401519460a0850151946200008460c0820162000535565b60e082015190916001600160401b039190828211620004f457019480601f87011215620004f4578551918211620004f95760059582871b908880620000cb8185016200050f565b809681520192820101928311620004f4578801905b828210620004d3575050506001600160a01b039384169889156200048f578416998a156200044b57841691821562000407578815620003b557898b14620003715784169283156200032d578416938462000295575b938a9896948a9493928d999760018060a01b0319936000968588541617875560019c8d98868a5416178955856002541617600255846003541617600355600494848654161785558981558860065560ff1960095416600955859b5b620001d7575b505050505050507fa37175a3415c4ec48c1ba6d18e2b563b5e88acf3b470b83ab91fa9eb741895f194508351928352820152a35161188690816200054b8239f35b919395979981939597999b9151821015620002895750838982841b850101511660088054906801000000000000000082101562000276578a8201808255821015620002635789528a892001908682541617905560001981146200025057908780979695949392019a98969594939291908e9a9862000190565b634e487b7160e01b875260118652602487fd5b634e487b7160e01b8a526032895260248afd5b634e487b7160e01b8a526041895260248afd5b99978b99975062000196565b898514620002e9578a850362000135578b5162461bcd60e51b815260048101889052601960248201527f4d65646961746f722063616e6e6f7420626520776f726b6572000000000000006044820152606490fd5b8b5162461bcd60e51b815260048101889052601b60248201527f4d65646961746f722063616e6e6f7420626520656d706c6f79657200000000006044820152606490fd5b8b5162461bcd60e51b815260048101889052601560248201527f496e76616c69642061646d696e206164647265737300000000000000000000006044820152606490fd5b8b5162461bcd60e51b815260048101889052601d60248201527f456d706c6f7965722063616e6e6f742062652074686520776f726b65720000006044820152606490fd5b8b5162461bcd60e51b815260048101889052602560248201527f5061796d656e7420616d6f756e74206d75737420626520677265617465722074604482015264068616e20360dc1b6064820152608490fd5b8b5162461bcd60e51b815260048101889052601560248201527f496e76616c696420746f6b656e206164647265737300000000000000000000006044820152606490fd5b8b5162461bcd60e51b815260048101889052601660248201527f496e76616c696420776f726b65722061646472657373000000000000000000006044820152606490fd5b8b5162461bcd60e51b815260048101889052601860248201527f496e76616c696420656d706c6f796572206164647265737300000000000000006044820152606490fd5b81516001600160a01b0381168103620004f4578152908801908801620000e0565b600080fd5b634e487b7160e01b600052604160045260246000fd5b6040519190601f01601f191682016001600160401b03811183821017620004f957604052565b51906001600160a01b0382168203620004f45756fe60806040908082526004908136101561001757600080fd5b600091823560e01c91826310a9de60146114825750816312065fe0146113eb5781632b68bb2d146111fb5781633013ce29146111d25781633f4e4251146111b35781634d547ada1461118a57816350017f3e14610eef578163619d267114610e2d5781636d0501f614610e04578163725a3b4b14610b0c5781637bf6c10414610ad7578163881f227c146106d7578163ae200e79146106ae578163c19d93fb14610685578163c2939d9714610666578163c35905c614610647578163cfff63ca14610474578163dc1a19e91461044e578163e05f3721146101c457508063f851a440146101985763fbbf93a01461010d57600080fd5b346101955780600319360112610195575060018060a01b039081600154169061018b836002541693600354169161017a60055460065460ff60095416916008549661015661156f565b9580519a8b9a8b5260208b01528901526060880152608087015260a086019061166d565b6101008060c086015284019061162d565b9060e08301520390f35b80fd5b5090346101c057816003193601126101c057905490516001600160a01b039091168152602090f35b5080fd5b8391503461044a578260031936011261044a576001546001600160a01b03919082163303610407576008541561038c5760ff60095416600681101561037957600161020f91146116dc565b610217611792565b15610336575b600260ff19600954161760095561026d6020838354168460025416906005549188885180968195829463a9059cbb60e01b84528a840160209093929193604081019460018060a01b031681520152565b03925af190811561032c5785916102fe575b50156102bb575060207f97317410cab7de9323eb972bc315e3726a4b33052d76ea01d1ca261a3df66fe29160025416926005549051908152a280f35b606490602084519162461bcd60e51b8352820152601760248201527f5061796d656e74207472616e73666572206661696c65640000000000000000006044820152fd5b61031f915060203d8111610325575b6103178183611537565b810190611728565b8561027f565b503d61030d565b84513d87823e3d90fd5b606490602084519162461bcd60e51b8352820152602060248201527f4f7261636c6520766572696669636174696f6e206e6f7420636f6d706c6574656044820152fd5b634e487b7160e01b855260218252602485fd5b60ff6009541660068110156103795780159081156103fc575b5061021d57608490602084519162461bcd60e51b8352820152602660248201527f436f6e7472616374206e6f7420696e2066756e646564206f722061637469766560448201526520737461746560d01b6064820152fd5b6001915014856103a5565b606490602084519162461bcd60e51b8352820152601960248201527f4f6e6c7920656d706c6f7965722063616e20617070726f7665000000000000006044820152fd5b8280fd5b8284346101c057816003193601126101c05760209061046b611792565b90519015158152f35b9050823461044a5760209182600319360112610643576001600160a01b0381358181169491939085900361063f578386541633036106115784156105d0576003549380851661058e578060015416861461054c5760025416851461050b575050506001600160a01b03191681176003557fc7fcb98bb0eec420cf57a3179345050abb1dfea22b55328af13575b25b21d0468280a280f35b5162461bcd60e51b815291820152601960248201527f4d65646961746f722063616e6e6f7420626520776f726b657200000000000000604482015260649150fd5b505162461bcd60e51b815291820152601b60248201527f4d65646961746f722063616e6e6f7420626520656d706c6f7965720000000000604482015260649150fd5b505162461bcd60e51b815291820152601960248201527f4d65646961746f7220616c72656164792061737369676e656400000000000000604482015260649150fd5b5162461bcd60e51b815291820152601860248201527f496e76616c6964206d65646961746f7220616464726573730000000000000000604482015260649150fd5b5162461bcd60e51b815291820152600a60248201526927b7363c9030b236b4b760b11b604482015260649150fd5b8580fd5b8380fd5b8284346101c057816003193601126101c0576020906005549051908152f35b8284346101c057816003193601126101c0576020906006549051908152f35b8284346101c057816003193601126101c0576020906106ac60ff600954169151809261166d565bf35b8284346101c057816003193601126101c05760015490516001600160a01b039091168152602090f35b8284346101c0576020908160031936011261044a5783359360ff8516809503610643576003546001600160a01b03959086168015610a9c573303610a4f576009549160ff83166006811015610a3c576003036109f957606482116109b657602485888354168651928380926370a0823160e01b825230878301525afa908115610886578791610985575b508281028181048414821517156109725760649004938482039382851161095f578592919061095057508260ff1960095416176009555b81610890575b036107da575b507fd45d961e06565b8dd3d1da8aa5d6bdf1ea1253ebf46c31573e5acd0125f2432693949560035416948351928352820152a280f35b8054600154855163a9059cbb60e01b81529089166001600160a01b0316818401908152602081018590529091879183918b169082908b90829060400103925af1908115610886578791610869575b506107a457835162461bcd60e51b81529081018590526016602482015275115b5c1b1bde595c881c99599d5b990819985a5b195960521b6044820152606490fd5b6108809150863d8811610325576103178183611537565b88610828565b85513d89823e3d90fd5b90866108cf918a8554168b600254168b8a5180968195829463a9059cbb60e01b84528b840160209093929193604081019460018060a01b031681520152565b03925af1908115610946578891610929575b50156108ee57839061079e565b845162461bcd60e51b8152808301879052601560248201527415dbdc9ad95c881c185e5b595b9d0819985a5b1959605a1b6044820152606490fd5b6109409150873d8911610325576103178183611537565b896108e1565b86513d8a823e3d90fd5b60ff1916600217600955610798565b634e487b7160e01b895260118452602489fd5b634e487b7160e01b885260118352602488fd5b90508581813d83116109af575b61099c8183611537565b810103126109ab575188610761565b8680fd5b503d610992565b835162461bcd60e51b8152908101859052601860248201527f50657263656e74616765206d75737420626520302d31303000000000000000006044820152606490fd5b835162461bcd60e51b8152908101859052601e60248201527f436f6e7472616374206e6f7420696e20646973707574656420737461746500006044820152606490fd5b634e487b7160e01b875260218252602487fd5b5082608492519162461bcd60e51b8352820152602260248201527f4f6e6c79206d65646961746f722063616e207265736f6c766520646973707574604482015261657360f01b6064820152fd5b835162461bcd60e51b815280840186905260156024820152741359591a585d1bdc881b9bdd08185cdcda59db9959605a1b6044820152606490fd5b8284346101c057816003193601126101c057610b0890610af561156f565b905191829160208352602083019061162d565b0390f35b8391503461044a576020806003193601126106435767ffffffffffffffff92823584811161063f573660238201121561063f578084013594851161063f57602490368287830101116109ab5760018054909590336001600160a01b0391821614908115610df6575b5015610daa576009549060ff82166006811015610d985787610b9691146116dc565b8715610d56575090600387939260ff191617600955610bb66007546114fd565b601f8111610ce5575b508795601f8411600114610c4357838091847f28b099eb575e23e32becd7c30dc8f9b2f98e370cdbf9841ea3338d9000402a25998c94610c36575b50501b906000198560031b1c1916176007555b82845195808752860152018284013784818584010152813394601f80199101168101030190a280f35b850101359250848c610bfa565b600789527fa66cc928b5edb82af9bd49922954155ab7b0942694bea4ce44661d9a8736c688601f1985168a5b818110610ccb575097857f28b099eb575e23e32becd7c30dc8f9b2f98e370cdbf9841ea3338d9000402a259910610caf575b505083811b01600755610c0d565b8301840135600019600387901b60f8161c191690558980610ca1565b8985018601358355988801988a9650918301918801610c6f565b90919250600788527fa66cc928b5edb82af9bd49922954155ab7b0942694bea4ce44661d9a8736c688601f880160051c810191868910610d4c575b8894939291601f89920160051c01915b828110610d3e575050610bbf565b8a8155899550889101610d30565b9091508190610d20565b845162461bcd60e51b81529081018690526017818501527f4469737075746520726561736f6e2072657175697265640000000000000000006044820152606490fd5b634e487b7160e01b8a5260218252848afd5b835162461bcd60e51b81529081018590526021818401527f4f6e6c7920636f6e747261637420706172746965732063616e206469737075746044820152606560f81b6064820152608490fd5b905060025416331489610b74565b8284346101c057816003193601126101c05760035490516001600160a01b039091168152602090f35b8284346101c057816003193601126101c0576002546001600160a01b03169033829003610eb4575060095460ff81166006811015610ea15790610e7260019215611690565b60ff1916176009557f49af38404bac216b516e493cd4d5ead95274db4c767aab7ae2f466117a5e29c08280a280f35b634e487b7160e01b845260218552602484fd5b5162461bcd60e51b8152602081850152601660248201527513db9b1e481ddbdc9ad95c8818d85b881858d8d95c1d60521b6044820152606490fd5b8391503461044a57602091826003193601126106435781359283156111495760ff6009541660068110159081611136578015918215611129575b8215611105575b5050156110c457825482516323b872dd60e01b81523381860152306024820152604481018690526001600160a01b03918390829060649082908b9087165af19081156110ba57879161109d575b50156110625760055485810180911161104f579082916005558454169360248451809681936370a0823160e01b835230908301525afa908115611045578591610ff2575b7ff900f4ee3578ff749ef01dc0135667bceaab8c36e686db162e0ee387c24f10eb935082519485528401523392a280f35b80915083813d831161103e575b6110098183611537565b8101031261103a577ff900f4ee3578ff749ef01dc0135667bceaab8c36e686db162e0ee387c24f10eb925190610fc1565b8480fd5b503d610fff565b82513d87823e3d90fd5b634e487b7160e01b875260118552602487fd5b50905162461bcd60e51b8152918201526016602482015275151bdc081d5c081d1c985b9cd9995c8819985a5b195960521b6044820152606490fd5b6110b49150833d8511610325576103178183611537565b87610f7d565b84513d89823e3d90fd5b905162461bcd60e51b815291820152601e60248201527f43616e6e6f7420746f7020757020696e2063757272656e7420737461746500006044820152606490fd5b909150611116576003148680610f30565b634e487b7160e01b865260218452602486fd5b5060018114915086610f29565b634e487b7160e01b875260218552602487fd5b905162461bcd60e51b815291820152601d60248201527f416d6f756e74206d7573742062652067726561746572207468616e20300000006044820152606490fd5b8284346101c057816003193601126101c05760025490516001600160a01b039091168152602090f35b8284346101c057816003193601126101c0576020906008549051908152f35b8391503461044a578260031936011261044a575490516001600160a01b03909116815260209150f35b8391503461044a578260031936011261044a576001546001600160a01b0390811690338290036113a8576009549260ff84166006811015610a3c576112409015611690565b818154168551936370a0823160e01b855230838601526020958686602481865afa95861561139e57899661136a575b5060ff1916600517600955846112b4575b505050907f92ce3e963127bbf0719441667d3155d31dc2687e0e47b8af94401c65362107549291600154169351908152a280f35b865163a9059cbb60e01b81526001600160a01b03909116838201908152602081018690529091869183919082908b90829060400103925af1908115611360578791611343575b5015611307578080611280565b845162461bcd60e51b815290810184905260166024820152751499599d5b99081d1c985b9cd9995c8819985a5b195960521b6044820152606490fd5b61135a9150853d8711610325576103178183611537565b876112fa565b86513d89823e3d90fd5b9095508681813d8311611397575b6113828183611537565b81010312611393575194600561126f565b8880fd5b503d611378565b88513d8b823e3d90fd5b835162461bcd60e51b8152602081850152601860248201527f4f6e6c7920656d706c6f7965722063616e2063616e63656c00000000000000006044820152606490fd5b9050823461044a578260031936011261044a57815481516370a0823160e01b81523093810193909352602090839060249082906001600160a01b03165afa918215611478578392611441575b6020838351908152f35b9091506020813d8211611470575b8161145c60209383611537565b8101031261044a5760209250519083611437565b3d915061144f565b81513d85823e3d90fd5b8490843461019557602036600319011261019557508235926008548410156114c6576020836114b086611745565b905491519160018060a01b039160031b1c168152f35b62461bcd60e51b82526020908201526013602482015272496e646578206f7574206f6620626f756e647360681b6044820152606490fd5b90600182811c9216801561152d575b602083101461151757565b634e487b7160e01b600052602260045260246000fd5b91607f169161150c565b90601f8019910116810190811067ffffffffffffffff82111761155957604052565b634e487b7160e01b600052604160045260246000fd5b6040519060008260075491611583836114fd565b8083529260019081811690811561160b57506001146115ac575b506115aa92500383611537565b565b6007600090815291507fa66cc928b5edb82af9bd49922954155ab7b0942694bea4ce44661d9a8736c6885b8483106115f057506115aa93505081016020013861159d565b81935090816020925483858a010152019101909185926115d7565b9050602092506115aa94915060ff191682840152151560051b8201013861159d565b919082519283825260005b848110611659575050826000602080949584010152601f8019910116010190565b602081830181015184830182015201611638565b90600682101561167a5752565b634e487b7160e01b600052602160045260246000fd5b1561169757565b60405162461bcd60e51b815260206004820152601c60248201527f436f6e7472616374206e6f7420696e2066756e646564207374617465000000006044820152606490fd5b156116e357565b60405162461bcd60e51b815260206004820152601c60248201527f436f6e7472616374206e6f7420696e20616374697665207374617465000000006044820152606490fd5b90816020910312611740575180151581036117405790565b600080fd5b60085481101561177c5760086000527ff3f7a9fe364faab93b216da50a3214154f22a0a2b415b23a84c8169e8b636ee30190600090565b634e487b7160e01b600052603260045260246000fd5b60085460005b8181106117a6575050600190565b6117af81611745565b90546040805163fa08c3f560e01b81523060048201529092909160209182918491602491839160031b1c6001600160a01b03165afa9283156118465750600092611829575b50501561182257600019811461180c57600101611798565b634e487b7160e01b600052601160045260246000fd5b5050600090565b61183f9250803d10610325576103178183611537565b38806117f4565b513d6000823e3d90fdfea264697066735822122004539d117d38ac5785b563f549b8f4f79326b7cf88a26c58e41d50ff43bcdcd564736f6c63430008140033a264697066735822122063e144500682f3d879fff4975bde2f61d959d33648a1a88084b2db505189304e64736f6c63430008140033",
  "linkReferences": {},
  "deployedLinkReferences": {}
}